{"project/contracts/BinarySearch.sol":{"BinarySearch":{"abi":[{"inputs":[{"internalType":"int256[]","name":"arr","type":"int256[]"},{"internalType":"int256","name":"target","type":"int256"}],"name":"search","outputs":[{"internalType":"uint256","name":"","type":"uint256"}],"stateMutability":"pure","type":"function"}],"evm":{"bytecode":{"linkReferences":{},"object":"6080604052348015600e575f5ffd5b506104c48061001c5f395ff3fe608060405234801561000f575f5ffd5b5060043610610029575f3560e01c8063066a7e601461002d575b5f5ffd5b610047600480360381019061004291906102e6565b61005d565b6040516100549190610358565b60405180910390f35b5f5f5f90505f60018551610071919061039e565b90505b808211610126575f6002838361008a919061039e565b61009491906103fe565b8361009f919061042e565b9050848682815181106100b5576100b4610461565b5b6020026020010151036100cd5780935050505061014c565b848682815181106100e1576100e0610461565b5b60200260200101511215610103576001816100fc919061042e565b9250610120565b5f81036101105750610126565b60018161011d919061039e565b91505b50610074565b7fffffffffffffffffffffffffffffffffffffffffffffffffffffffffffffffff925050505b92915050565b5f604051905090565b5f5ffd5b5f5ffd5b5f5ffd5b5f601f19601f8301169050919050565b7f4e487b71000000000000000000000000000000000000000000000000000000005f52604160045260245ffd5b6101ad82610167565b810181811067ffffffffffffffff821117156101cc576101cb610177565b5b80604052505050565b5f6101de610152565b90506101ea82826101a4565b919050565b5f67ffffffffffffffff82111561020957610208610177565b5b602082029050602081019050919050565b5f5ffd5b5f819050919050565b6102308161021e565b811461023a575f5ffd5b50565b5f8135905061024b81610227565b92915050565b5f61026361025e846101ef565b6101d5565b905080838252602082019050602084028301858111156102865761028561021a565b5b835b818110156102af578061029b888261023d565b845260208401935050602081019050610288565b5050509392505050565b5f82601f8301126102cd576102cc610163565b5b81356102dd848260208601610251565b91505092915050565b5f5f604083850312156102fc576102fb61015b565b5b5f83013567ffffffffffffffff8111156103195761031861015f565b5b610325858286016102b9565b92505060206103368582860161023d565b9150509250929050565b5f819050919050565b61035281610340565b82525050565b5f60208201905061036b5f830184610349565b92915050565b7f4e487b71000000000000000000000000000000000000000000000000000000005f52601160045260245ffd5b5f6103a882610340565b91506103b383610340565b92508282039050818111156103cb576103ca610371565b5b92915050565b7f4e487b71000000000000000000000000000000000000000000000000000000005f52601260045260245ffd5b5f61040882610340565b915061041383610340565b925082610423576104226103d1565b5b828204905092915050565b5f61043882610340565b915061044383610340565b925082820190508082111561045b5761045a610371565b5b92915050565b7f4e487b71000000000000000000000000000000000000000000000000000000005f52603260045260245ffdfea264697066735822122013e65a2c30eaba84185ee171a96b0fd4aeda374eea26d025d4ca309636baedc364736f6c634300081c0033","opcodes":"PUSH1 0x80 PUSH1 0x40 MSTORE CALLVALUE DUP1 ISZERO PUSH1 0xE JUMPI PUSH0 PUSH0 REVERT JUMPDEST POP PUSH2 0x4C4 DUP1 PUSH2 0x1C PUSH0 CODECOPY PUSH0 RETURN INVALID PUSH1 0x80 PUSH1 0x40 MSTORE CALLVALUE DUP1 ISZERO PUSH2 0xF JUMPI PUSH0 PUSH0 REVERT JUMPDEST POP PUSH1 0x4 CALLDATASIZE LT PUSH2 0x29 JUMPI PUSH0 CALLDATALOAD PUSH1 0xE0 SHR DUP1 PUSH4 0x66A7E60 EQ PUSH2 0x2D JUMPI JUMPDEST PUSH0 PUSH0 REVERT JUMPDEST PUSH2 0x47 PUSH1 0x4 DUP1 CALLDATASIZE SUB DUP2 ADD SWAP1 PUSH2 0x42 SWAP2 SWAP1 PUSH2 0x2E6 JUMP JUMPDEST PUSH2 0x5D JUMP JUMPDEST PUSH1 0x40 MLOAD PUSH2 0x54 SWAP2 SWAP1 PUSH2 0x358 JUMP JUMPDEST PUSH1 0x40 MLOAD DUP1 SWAP2 SUB SWAP1 RETURN JUMPDEST PUSH0 PUSH0 PUSH0 SWAP1 POP PUSH0 PUSH1 0x1 DUP6 MLOAD PUSH2 0x71 SWAP2 SWAP1 PUSH2 0x39E JUMP JUMPDEST SWAP1 POP JUMPDEST DUP1 DUP3 GT PUSH2 0x126 JUMPI PUSH0 PUSH1 0x2 DUP4 DUP4 PUSH2 0x8A SWAP2 SWAP1 PUSH2 0x39E JUMP JUMPDEST PUSH2 0x94 SWAP2 SWAP1 PUSH2 0x3FE JUMP JUMPDEST DUP4 PUSH2 0x9F SWAP2 SWAP1 PUSH2 0x42E JUMP JUMPDEST SWAP1 POP DUP5 DUP7 DUP3 DUP2 MLOAD DUP2 LT PUSH2 0xB5 JUMPI PUSH2 0xB4 PUSH2 0x461 JUMP JUMPDEST JUMPDEST PUSH1 0x20 MUL PUSH1 0x20 ADD ADD MLOAD SUB PUSH2 0xCD JUMPI DUP1 SWAP4 POP POP POP POP PUSH2 0x14C JUMP JUMPDEST DUP5 DUP7 DUP3 DUP2 MLOAD DUP2 LT PUSH2 0xE1 JUMPI PUSH2 0xE0 PUSH2 0x461 JUMP JUMPDEST JUMPDEST PUSH1 0x20 MUL PUSH1 0x20 ADD ADD MLOAD SLT ISZERO PUSH2 0x103 JUMPI PUSH1 0x1 DUP2 PUSH2 0xFC SWAP2 SWAP1 PUSH2 0x42E JUMP JUMPDEST SWAP3 POP PUSH2 0x120 JUMP JUMPDEST PUSH0 DUP2 SUB PUSH2 0x110 JUMPI POP PUSH2 0x126 JUMP JUMPDEST PUSH1 0x1 DUP2 PUSH2 0x11D SWAP2 SWAP1 PUSH2 0x39E JUMP JUMPDEST SWAP2 POP JUMPDEST POP PUSH2 0x74 JUMP JUMPDEST PUSH32 0xFFFFFFFFFFFFFFFFFFFFFFFFFFFFFFFFFFFFFFFFFFFFFFFFFFFFFFFFFFFFFFFF SWAP3 POP POP POP JUMPDEST SWAP3 SWAP2 POP POP JUMP JUMPDEST PUSH0 PUSH1 0x40 MLOAD SWAP1 POP SWAP1 JUMP JUMPDEST PUSH0 PUSH0 REVERT JUMPDEST PUSH0 PUSH0 REVERT JUMPDEST PUSH0 PUSH0 REVERT JUMPDEST PUSH0 PUSH1 0x1F NOT PUSH1 0x1F DUP4 ADD AND SWAP1 POP SWAP2 SWAP1 POP JUMP JUMPDEST PUSH32 0x4E487B7100000000000000000000000000000000000000000000000000000000 PUSH0 MSTORE PUSH1 0x41 PUSH1 0x4 MSTORE PUSH1 0x24 PUSH0 REVERT JUMPDEST PUSH2 0x1AD DUP3 PUSH2 0x167 JUMP JUMPDEST DUP2 ADD DUP2 DUP2 LT PUSH8 0xFFFFFFFFFFFFFFFF DUP3 GT OR ISZERO PUSH2 0x1CC JUMPI PUSH2 0x1CB PUSH2 0x177 JUMP JUMPDEST JUMPDEST DUP1 PUSH1 0x40 MSTORE POP POP POP JUMP JUMPDEST PUSH0 PUSH2 0x1DE PUSH2 0x152 JUMP JUMPDEST SWAP1 POP PUSH2 0x1EA DUP3 DUP3 PUSH2 0x1A4 JUMP JUMPDEST SWAP2 SWAP1 POP JUMP JUMPDEST PUSH0 PUSH8 0xFFFFFFFFFFFFFFFF DUP3 GT ISZERO PUSH2 0x209 JUMPI PUSH2 0x208 PUSH2 0x177 JUMP JUMPDEST JUMPDEST PUSH1 0x20 DUP3 MUL SWAP1 POP PUSH1 0x20 DUP2 ADD SWAP1 POP SWAP2 SWAP1 POP JUMP JUMPDEST PUSH0 PUSH0 REVERT JUMPDEST PUSH0 DUP2 SWAP1 POP SWAP2 SWAP1 POP JUMP JUMPDEST PUSH2 0x230 DUP2 PUSH2 0x21E JUMP JUMPDEST DUP2 EQ PUSH2 0x23A JUMPI PUSH0 PUSH0 REVERT JUMPDEST POP JUMP JUMPDEST PUSH0 DUP2 CALLDATALOAD SWAP1 POP PUSH2 0x24B DUP2 PUSH2 0x227 JUMP JUMPDEST SWAP3 SWAP2 POP POP JUMP JUMPDEST PUSH0 PUSH2 0x263 PUSH2 0x25E DUP5 PUSH2 0x1EF JUMP JUMPDEST PUSH2 0x1D5 JUMP JUMPDEST SWAP1 POP DUP1 DUP4 DUP3 MSTORE PUSH1 0x20 DUP3 ADD SWAP1 POP PUSH1 0x20 DUP5 MUL DUP4 ADD DUP6 DUP2 GT ISZERO PUSH2 0x286 JUMPI PUSH2 0x285 PUSH2 0x21A JUMP JUMPDEST JUMPDEST DUP4 JUMPDEST DUP2 DUP2 LT ISZERO PUSH2 0x2AF JUMPI DUP1 PUSH2 0x29B DUP9 DUP3 PUSH2 0x23D JUMP JUMPDEST DUP5 MSTORE PUSH1 0x20 DUP5 ADD SWAP4 POP POP PUSH1 0x20 DUP2 ADD SWAP1 POP PUSH2 0x288 JUMP JUMPDEST POP POP POP SWAP4 SWAP3 POP POP POP JUMP JUMPDEST PUSH0 DUP3 PUSH1 0x1F DUP4 ADD SLT PUSH2 0x2CD JUMPI PUSH2 0x2CC PUSH2 0x163 JUMP JUMPDEST JUMPDEST DUP2 CALLDATALOAD PUSH2 0x2DD DUP5 DUP3 PUSH1 0x20 DUP7 ADD PUSH2 0x251 JUMP JUMPDEST SWAP2 POP POP SWAP3 SWAP2 POP POP JUMP JUMPDEST PUSH0 PUSH0 PUSH1 0x40 DUP4 DUP6 SUB SLT ISZERO PUSH2 0x2FC JUMPI PUSH2 0x2FB PUSH2 0x15B JUMP JUMPDEST JUMPDEST PUSH0 DUP4 ADD CALLDATALOAD PUSH8 0xFFFFFFFFFFFFFFFF DUP2 GT ISZERO PUSH2 0x319 JUMPI PUSH2 0x318 PUSH2 0x15F JUMP JUMPDEST JUMPDEST PUSH2 0x325 DUP6 DUP3 DUP7 ADD PUSH2 0x2B9 JUMP JUMPDEST SWAP3 POP POP PUSH1 0x20 PUSH2 0x336 DUP6 DUP3 DUP7 ADD PUSH2 0x23D JUMP JUMPDEST SWAP2 POP POP SWAP3 POP SWAP3 SWAP1 POP JUMP JUMPDEST PUSH0 DUP2 SWAP1 POP SWAP2 SWAP1 POP JUMP JUMPDEST PUSH2 0x352 DUP2 PUSH2 0x340 JUMP JUMPDEST DUP3 MSTORE POP POP JUMP JUMPDEST PUSH0 PUSH1 0x20 DUP3 ADD SWAP1 POP PUSH2 0x36B PUSH0 DUP4 ADD DUP5 PUSH2 0x349 JUMP JUMPDEST SWAP3 SWAP2 POP POP JUMP JUMPDEST PUSH32 0x4E487B7100000000000000000000000000000000000000000000000000000000 PUSH0 MSTORE PUSH1 0x11 PUSH1 0x4 MSTORE PUSH1 0x24 PUSH0 REVERT JUMPDEST PUSH0 PUSH2 0x3A8 DUP3 PUSH2 0x340 JUMP JUMPDEST SWAP2 POP PUSH2 0x3B3 DUP4 PUSH2 0x340 JUMP JUMPDEST SWAP3 POP DUP3 DUP3 SUB SWAP1 POP DUP2 DUP2 GT ISZERO PUSH2 0x3CB JUMPI PUSH2 0x3CA PUSH2 0x371 JUMP JUMPDEST JUMPDEST SWAP3 SWAP2 POP POP JUMP JUMPDEST PUSH32 0x4E487B7100000000000000000000000000000000000000000000000000000000 PUSH0 MSTORE PUSH1 0x12 PUSH1 0x4 MSTORE PUSH1 0x24 PUSH0 REVERT JUMPDEST PUSH0 PUSH2 0x408 DUP3 PUSH2 0x340 JUMP JUMPDEST SWAP2 POP PUSH2 0x413 DUP4 PUSH2 0x340 JUMP JUMPDEST SWAP3 POP DUP3 PUSH2 0x423 JUMPI PUSH2 0x422 PUSH2 0x3D1 JUMP JUMPDEST JUMPDEST DUP3 DUP3 DIV SWAP1 POP SWAP3 SWAP2 POP POP JUMP JUMPDEST PUSH0 PUSH2 0x438 DUP3 PUSH2 0x340 JUMP JUMPDEST SWAP2 POP PUSH2 0x443 DUP4 PUSH2 0x340 JUMP JUMPDEST SWAP3 POP DUP3 DUP3 ADD SWAP1 POP DUP1 DUP3 GT ISZERO PUSH2 0x45B JUMPI PUSH2 0x45A PUSH2 0x371 JUMP JUMPDEST JUMPDEST SWAP3 SWAP2 POP POP JUMP JUMPDEST PUSH32 0x4E487B7100000000000000000000000000000000000000000000000000000000 PUSH0 MSTORE PUSH1 0x32 PUSH1 0x4 MSTORE PUSH1 0x24 PUSH0 REVERT INVALID LOG2 PUSH5 0x6970667358 0x22 SLT KECCAK256 SGT 0xE6 GAS 0x2C ADDRESS 0xEA 0xBA DUP5 XOR MCOPY 0xE1 PUSH18 0xA96B0FD4AEDA374EEA26D025D4CA309636BA 0xED 0xC3 PUSH5 0x736F6C6343 STOP ADDMOD SHR STOP CALLER "},"methodIdentifiers":{"search(int256[],int256)":"066a7e60"}}}}}