{"project/contracts/MergeSortedArray.sol":{"MergeSortedArray":{"abi":[{"inputs":[{"internalType":"int256[]","name":"nums1","type":"int256[]"},{"internalType":"int256[]","name":"nums2","type":"int256[]"}],"name":"merge","outputs":[{"internalType":"int256[]","name":"","type":"int256[]"}],"stateMutability":"pure","type":"function"}],"evm":{"bytecode":{"linkReferences":{},"object":"6080604052348015600e575f5ffd5b5061068f8061001c5f395ff3fe608060405234801561000f575f5ffd5b5060043610610029575f3560e01c80638e13aff11461002d575b5f5ffd5b6100476004803603810190610042919061042f565b61005d565b604051610054919061055c565b60405180910390f35b60605f5f90505f5f90505f855190505f855190505f818361007e91906105b2565b67ffffffffffffffff811115610097576100966102c0565b5b6040519080825280602002602001820160405280156100c55781602001602082028036833780820191505090505b5090505f5f90505b83861080156100db57508285105b156101c4578785815181106100f3576100f26105e5565b5b602002602001015189878151811061010e5761010d6105e5565b5b6020026020010151136101685788868151811061012e5761012d6105e5565b5b6020026020010151828281518110610149576101486105e5565b5b602002602001018181525050858061016090610612565b9650506101b1565b87858151811061017b5761017a6105e5565b5b6020026020010151828281518110610196576101956105e5565b5b60200260200101818152505084806101ad90610612565b9550505b80806101bc90610612565b9150506100cd565b5b83861015610228578886815181106101e0576101df6105e5565b5b60200260200101518282815181106101fb576101fa6105e5565b5b602002602001018181525050858061021290610612565b965050808061022090610612565b9150506101c5565b5b8285101561028c57878581518110610244576102436105e5565b5b602002602001015182828151811061025f5761025e6105e5565b5b602002602001018181525050848061027690610612565b955050808061028490610612565b915050610229565b81965050505050505092915050565b5f604051905090565b5f5ffd5b5f5ffd5b5f5ffd5b5f601f19601f8301169050919050565b7f4e487b71000000000000000000000000000000000000000000000000000000005f52604160045260245ffd5b6102f6826102b0565b810181811067ffffffffffffffff82111715610315576103146102c0565b5b80604052505050565b5f61032761029b565b905061033382826102ed565b919050565b5f67ffffffffffffffff821115610352576103516102c0565b5b602082029050602081019050919050565b5f5ffd5b5f819050919050565b61037981610367565b8114610383575f5ffd5b50565b5f8135905061039481610370565b92915050565b5f6103ac6103a784610338565b61031e565b905080838252602082019050602084028301858111156103cf576103ce610363565b5b835b818110156103f857806103e48882610386565b8452602084019350506020810190506103d1565b5050509392505050565b5f82601f830112610416576104156102ac565b5b813561042684826020860161039a565b91505092915050565b5f5f60408385031215610445576104446102a4565b5b5f83013567ffffffffffffffff811115610462576104616102a8565b5b61046e85828601610402565b925050602083013567ffffffffffffffff81111561048f5761048e6102a8565b5b61049b85828601610402565b9150509250929050565b5f81519050919050565b5f82825260208201905092915050565b5f819050602082019050919050565b6104d781610367565b82525050565b5f6104e883836104ce565b60208301905092915050565b5f602082019050919050565b5f61050a826104a5565b61051481856104af565b935061051f836104bf565b805f5b8381101561054f57815161053688826104dd565b9750610541836104f4565b925050600181019050610522565b5085935050505092915050565b5f6020820190508181035f8301526105748184610500565b905092915050565b5f819050919050565b7f4e487b71000000000000000000000000000000000000000000000000000000005f52601160045260245ffd5b5f6105bc8261057c565b91506105c78361057c565b92508282019050808211156105df576105de610585565b5b92915050565b7f4e487b71000000000000000000000000000000000000000000000000000000005f52603260045260245ffd5b5f61061c8261057c565b91507fffffffffffffffffffffffffffffffffffffffffffffffffffffffffffffffff820361064e5761064d610585565b5b60018201905091905056fea2646970667358221220ab66d47950a6673f0101a45a8e0da84d46de6e52b30530710fa83cebef5c855564736f6c634300081c0033","opcodes":"PUSH1 0x80 PUSH1 0x40 MSTORE CALLVALUE DUP1 ISZERO PUSH1 0xE JUMPI PUSH0 PUSH0 REVERT JUMPDEST POP PUSH2 0x68F DUP1 PUSH2 0x1C PUSH0 CODECOPY PUSH0 RETURN INVALID PUSH1 0x80 PUSH1 0x40 MSTORE CALLVALUE DUP1 ISZERO PUSH2 0xF JUMPI PUSH0 PUSH0 REVERT JUMPDEST POP PUSH1 0x4 CALLDATASIZE LT PUSH2 0x29 JUMPI PUSH0 CALLDATALOAD PUSH1 0xE0 SHR DUP1 PUSH4 0x8E13AFF1 EQ PUSH2 0x2D JUMPI JUMPDEST PUSH0 PUSH0 REVERT JUMPDEST PUSH2 0x47 PUSH1 0x4 DUP1 CALLDATASIZE SUB DUP2 ADD SWAP1 PUSH2 0x42 SWAP2 SWAP1 PUSH2 0x42F JUMP JUMPDEST PUSH2 0x5D JUMP JUMPDEST PUSH1 0x40 MLOAD PUSH2 0x54 SWAP2 SWAP1 PUSH2 0x55C JUMP JUMPDEST PUSH1 0x40 MLOAD DUP1 SWAP2 SUB SWAP1 RETURN JUMPDEST PUSH1 0x60 PUSH0 PUSH0 SWAP1 POP PUSH0 PUSH0 SWAP1 POP PUSH0 DUP6 MLOAD SWAP1 POP PUSH0 DUP6 MLOAD SWAP1 POP PUSH0 DUP2 DUP4 PUSH2 0x7E SWAP2 SWAP1 PUSH2 0x5B2 JUMP JUMPDEST PUSH8 0xFFFFFFFFFFFFFFFF DUP2 GT ISZERO PUSH2 0x97 JUMPI PUSH2 0x96 PUSH2 0x2C0 JUMP JUMPDEST JUMPDEST PUSH1 0x40 MLOAD SWAP1 DUP1 DUP3 MSTORE DUP1 PUSH1 0x20 MUL PUSH1 0x20 ADD DUP3 ADD PUSH1 0x40 MSTORE DUP1 ISZERO PUSH2 0xC5 JUMPI DUP2 PUSH1 0x20 ADD PUSH1 0x20 DUP3 MUL DUP1 CALLDATASIZE DUP4 CALLDATACOPY DUP1 DUP3 ADD SWAP2 POP POP SWAP1 POP JUMPDEST POP SWAP1 POP PUSH0 PUSH0 SWAP1 POP JUMPDEST DUP4 DUP7 LT DUP1 ISZERO PUSH2 0xDB JUMPI POP DUP3 DUP6 LT JUMPDEST ISZERO PUSH2 0x1C4 JUMPI DUP8 DUP6 DUP2 MLOAD DUP2 LT PUSH2 0xF3 JUMPI PUSH2 0xF2 PUSH2 0x5E5 JUMP JUMPDEST JUMPDEST PUSH1 0x20 MUL PUSH1 0x20 ADD ADD MLOAD DUP10 DUP8 DUP2 MLOAD DUP2 LT PUSH2 0x10E JUMPI PUSH2 0x10D PUSH2 0x5E5 JUMP JUMPDEST JUMPDEST PUSH1 0x20 MUL PUSH1 0x20 ADD ADD MLOAD SGT PUSH2 0x168 JUMPI DUP9 DUP7 DUP2 MLOAD DUP2 LT PUSH2 0x12E JUMPI PUSH2 0x12D PUSH2 0x5E5 JUMP JUMPDEST JUMPDEST PUSH1 0x20 MUL PUSH1 0x20 ADD ADD MLOAD DUP3 DUP3 DUP2 MLOAD DUP2 LT PUSH2 0x149 JUMPI PUSH2 0x148 PUSH2 0x5E5 JUMP JUMPDEST JUMPDEST PUSH1 0x20 MUL PUSH1 0x20 ADD ADD DUP2 DUP2 MSTORE POP POP DUP6 DUP1 PUSH2 0x160 SWAP1 PUSH2 0x612 JUMP JUMPDEST SWAP7 POP POP PUSH2 0x1B1 JUMP JUMPDEST DUP8 DUP6 DUP2 MLOAD DUP2 LT PUSH2 0x17B JUMPI PUSH2 0x17A PUSH2 0x5E5 JUMP JUMPDEST JUMPDEST PUSH1 0x20 MUL PUSH1 0x20 ADD ADD MLOAD DUP3 DUP3 DUP2 MLOAD DUP2 LT PUSH2 0x196 JUMPI PUSH2 0x195 PUSH2 0x5E5 JUMP JUMPDEST JUMPDEST PUSH1 0x20 MUL PUSH1 0x20 ADD ADD DUP2 DUP2 MSTORE POP POP DUP5 DUP1 PUSH2 0x1AD SWAP1 PUSH2 0x612 JUMP JUMPDEST SWAP6 POP POP JUMPDEST DUP1 DUP1 PUSH2 0x1BC SWAP1 PUSH2 0x612 JUMP JUMPDEST SWAP2 POP POP PUSH2 0xCD JUMP JUMPDEST JUMPDEST DUP4 DUP7 LT ISZERO PUSH2 0x228 JUMPI DUP9 DUP7 DUP2 MLOAD DUP2 LT PUSH2 0x1E0 JUMPI PUSH2 0x1DF PUSH2 0x5E5 JUMP JUMPDEST JUMPDEST PUSH1 0x20 MUL PUSH1 0x20 ADD ADD MLOAD DUP3 DUP3 DUP2 MLOAD DUP2 LT PUSH2 0x1FB JUMPI PUSH2 0x1FA PUSH2 0x5E5 JUMP JUMPDEST JUMPDEST PUSH1 0x20 MUL PUSH1 0x20 ADD ADD DUP2 DUP2 MSTORE POP POP DUP6 DUP1 PUSH2 0x212 SWAP1 PUSH2 0x612 JUMP JUMPDEST SWAP7 POP POP DUP1 DUP1 PUSH2 0x220 SWAP1 PUSH2 0x612 JUMP JUMPDEST SWAP2 POP POP PUSH2 0x1C5 JUMP JUMPDEST JUMPDEST DUP3 DUP6 LT ISZERO PUSH2 0x28C JUMPI DUP8 DUP6 DUP2 MLOAD DUP2 LT PUSH2 0x244 JUMPI PUSH2 0x243 PUSH2 0x5E5 JUMP JUMPDEST JUMPDEST PUSH1 0x20 MUL PUSH1 0x20 ADD ADD MLOAD DUP3 DUP3 DUP2 MLOAD DUP2 LT PUSH2 0x25F JUMPI PUSH2 0x25E PUSH2 0x5E5 JUMP JUMPDEST JUMPDEST PUSH1 0x20 MUL PUSH1 0x20 ADD ADD DUP2 DUP2 MSTORE POP POP DUP5 DUP1 PUSH2 0x276 SWAP1 PUSH2 0x612 JUMP JUMPDEST SWAP6 POP POP DUP1 DUP1 PUSH2 0x284 SWAP1 PUSH2 0x612 JUMP JUMPDEST SWAP2 POP POP PUSH2 0x229 JUMP JUMPDEST DUP2 SWAP7 POP POP POP POP POP POP POP SWAP3 SWAP2 POP POP JUMP JUMPDEST PUSH0 PUSH1 0x40 MLOAD SWAP1 POP SWAP1 JUMP JUMPDEST PUSH0 PUSH0 REVERT JUMPDEST PUSH0 PUSH0 REVERT JUMPDEST PUSH0 PUSH0 REVERT JUMPDEST PUSH0 PUSH1 0x1F NOT PUSH1 0x1F DUP4 ADD AND SWAP1 POP SWAP2 SWAP1 POP JUMP JUMPDEST PUSH32 0x4E487B7100000000000000000000000000000000000000000000000000000000 PUSH0 MSTORE PUSH1 0x41 PUSH1 0x4 MSTORE PUSH1 0x24 PUSH0 REVERT JUMPDEST PUSH2 0x2F6 DUP3 PUSH2 0x2B0 JUMP JUMPDEST DUP2 ADD DUP2 DUP2 LT PUSH8 0xFFFFFFFFFFFFFFFF DUP3 GT OR ISZERO PUSH2 0x315 JUMPI PUSH2 0x314 PUSH2 0x2C0 JUMP JUMPDEST JUMPDEST DUP1 PUSH1 0x40 MSTORE POP POP POP JUMP JUMPDEST PUSH0 PUSH2 0x327 PUSH2 0x29B JUMP JUMPDEST SWAP1 POP PUSH2 0x333 DUP3 DUP3 PUSH2 0x2ED JUMP JUMPDEST SWAP2 SWAP1 POP JUMP JUMPDEST PUSH0 PUSH8 0xFFFFFFFFFFFFFFFF DUP3 GT ISZERO PUSH2 0x352 JUMPI PUSH2 0x351 PUSH2 0x2C0 JUMP JUMPDEST JUMPDEST PUSH1 0x20 DUP3 MUL SWAP1 POP PUSH1 0x20 DUP2 ADD SWAP1 POP SWAP2 SWAP1 POP JUMP JUMPDEST PUSH0 PUSH0 REVERT JUMPDEST PUSH0 DUP2 SWAP1 POP SWAP2 SWAP1 POP JUMP JUMPDEST PUSH2 0x379 DUP2 PUSH2 0x367 JUMP JUMPDEST DUP2 EQ PUSH2 0x383 JUMPI PUSH0 PUSH0 REVERT JUMPDEST POP JUMP JUMPDEST PUSH0 DUP2 CALLDATALOAD SWAP1 POP PUSH2 0x394 DUP2 PUSH2 0x370 JUMP JUMPDEST SWAP3 SWAP2 POP POP JUMP JUMPDEST PUSH0 PUSH2 0x3AC PUSH2 0x3A7 DUP5 PUSH2 0x338 JUMP JUMPDEST PUSH2 0x31E JUMP JUMPDEST SWAP1 POP DUP1 DUP4 DUP3 MSTORE PUSH1 0x20 DUP3 ADD SWAP1 POP PUSH1 0x20 DUP5 MUL DUP4 ADD DUP6 DUP2 GT ISZERO PUSH2 0x3CF JUMPI PUSH2 0x3CE PUSH2 0x363 JUMP JUMPDEST JUMPDEST DUP4 JUMPDEST DUP2 DUP2 LT ISZERO PUSH2 0x3F8 JUMPI DUP1 PUSH2 0x3E4 DUP9 DUP3 PUSH2 0x386 JUMP JUMPDEST DUP5 MSTORE PUSH1 0x20 DUP5 ADD SWAP4 POP POP PUSH1 0x20 DUP2 ADD SWAP1 POP PUSH2 0x3D1 JUMP JUMPDEST POP POP POP SWAP4 SWAP3 POP POP POP JUMP JUMPDEST PUSH0 DUP3 PUSH1 0x1F DUP4 ADD SLT PUSH2 0x416 JUMPI PUSH2 0x415 PUSH2 0x2AC JUMP JUMPDEST JUMPDEST DUP2 CALLDATALOAD PUSH2 0x426 DUP5 DUP3 PUSH1 0x20 DUP7 ADD PUSH2 0x39A JUMP JUMPDEST SWAP2 POP POP SWAP3 SWAP2 POP POP JUMP JUMPDEST PUSH0 PUSH0 PUSH1 0x40 DUP4 DUP6 SUB SLT ISZERO PUSH2 0x445 JUMPI PUSH2 0x444 PUSH2 0x2A4 JUMP JUMPDEST JUMPDEST PUSH0 DUP4 ADD CALLDATALOAD PUSH8 0xFFFFFFFFFFFFFFFF DUP2 GT ISZERO PUSH2 0x462 JUMPI PUSH2 0x461 PUSH2 0x2A8 JUMP JUMPDEST JUMPDEST PUSH2 0x46E DUP6 DUP3 DUP7 ADD PUSH2 0x402 JUMP JUMPDEST SWAP3 POP POP PUSH1 0x20 DUP4 ADD CALLDATALOAD PUSH8 0xFFFFFFFFFFFFFFFF DUP2 GT ISZERO PUSH2 0x48F JUMPI PUSH2 0x48E PUSH2 0x2A8 JUMP JUMPDEST JUMPDEST PUSH2 0x49B DUP6 DUP3 DUP7 ADD PUSH2 0x402 JUMP JUMPDEST SWAP2 POP POP SWAP3 POP SWAP3 SWAP1 POP JUMP JUMPDEST PUSH0 DUP2 MLOAD SWAP1 POP SWAP2 SWAP1 POP JUMP JUMPDEST PUSH0 DUP3 DUP3 MSTORE PUSH1 0x20 DUP3 ADD SWAP1 POP SWAP3 SWAP2 POP POP JUMP JUMPDEST PUSH0 DUP2 SWAP1 POP PUSH1 0x20 DUP3 ADD SWAP1 POP SWAP2 SWAP1 POP JUMP JUMPDEST PUSH2 0x4D7 DUP2 PUSH2 0x367 JUMP JUMPDEST DUP3 MSTORE POP POP JUMP JUMPDEST PUSH0 PUSH2 0x4E8 DUP4 DUP4 PUSH2 0x4CE JUMP JUMPDEST PUSH1 0x20 DUP4 ADD SWAP1 POP SWAP3 SWAP2 POP POP JUMP JUMPDEST PUSH0 PUSH1 0x20 DUP3 ADD SWAP1 POP SWAP2 SWAP1 POP JUMP JUMPDEST PUSH0 PUSH2 0x50A DUP3 PUSH2 0x4A5 JUMP JUMPDEST PUSH2 0x514 DUP2 DUP6 PUSH2 0x4AF JUMP JUMPDEST SWAP4 POP PUSH2 0x51F DUP4 PUSH2 0x4BF JUMP JUMPDEST DUP1 PUSH0 JUMPDEST DUP4 DUP2 LT ISZERO PUSH2 0x54F JUMPI DUP2 MLOAD PUSH2 0x536 DUP9 DUP3 PUSH2 0x4DD JUMP JUMPDEST SWAP8 POP PUSH2 0x541 DUP4 PUSH2 0x4F4 JUMP JUMPDEST SWAP3 POP POP PUSH1 0x1 DUP2 ADD SWAP1 POP PUSH2 0x522 JUMP JUMPDEST POP DUP6 SWAP4 POP POP POP POP SWAP3 SWAP2 POP POP JUMP JUMPDEST PUSH0 PUSH1 0x20 DUP3 ADD SWAP1 POP DUP2 DUP2 SUB PUSH0 DUP4 ADD MSTORE PUSH2 0x574 DUP2 DUP5 PUSH2 0x500 JUMP JUMPDEST SWAP1 POP SWAP3 SWAP2 POP POP JUMP JUMPDEST PUSH0 DUP2 SWAP1 POP SWAP2 SWAP1 POP JUMP JUMPDEST PUSH32 0x4E487B7100000000000000000000000000000000000000000000000000000000 PUSH0 MSTORE PUSH1 0x11 PUSH1 0x4 MSTORE PUSH1 0x24 PUSH0 REVERT JUMPDEST PUSH0 PUSH2 0x5BC DUP3 PUSH2 0x57C JUMP JUMPDEST SWAP2 POP PUSH2 0x5C7 DUP4 PUSH2 0x57C JUMP JUMPDEST SWAP3 POP DUP3 DUP3 ADD SWAP1 POP DUP1 DUP3 GT ISZERO PUSH2 0x5DF JUMPI PUSH2 0x5DE PUSH2 0x585 JUMP JUMPDEST JUMPDEST SWAP3 SWAP2 POP POP JUMP JUMPDEST PUSH32 0x4E487B7100000000000000000000000000000000000000000000000000000000 PUSH0 MSTORE PUSH1 0x32 PUSH1 0x4 MSTORE PUSH1 0x24 PUSH0 REVERT JUMPDEST PUSH0 PUSH2 0x61C DUP3 PUSH2 0x57C JUMP JUMPDEST SWAP2 POP PUSH32 0xFFFFFFFFFFFFFFFFFFFFFFFFFFFFFFFFFFFFFFFFFFFFFFFFFFFFFFFFFFFFFFFF DUP3 SUB PUSH2 0x64E JUMPI PUSH2 0x64D PUSH2 0x585 JUMP JUMPDEST JUMPDEST PUSH1 0x1 DUP3 ADD SWAP1 POP SWAP2 SWAP1 POP JUMP INVALID LOG2 PUSH5 0x6970667358 0x22 SLT KECCAK256 0xAB PUSH7 0xD47950A6673F01 ADD LOG4 GAS DUP15 0xD 0xA8 0x4D CHAINID 0xDE PUSH15 0x52B30530710FA83CEBEF5C85556473 PUSH16 0x6C634300081C00330000000000000000 "},"methodIdentifiers":{"merge(int256[],int256[])":"8e13aff1"}}}}}