{"project/contracts/Voting.sol":{"Voting":{"abi":[{"inputs":[{"internalType":"uint256","name":"candidateId","type":"uint256"}],"name":"getVotes","outputs":[{"internalType":"uint256","name":"","type":"uint256"}],"stateMutability":"view","type":"function"},{"inputs":[],"name":"resetVotes","outputs":[],"stateMutability":"nonpayable","type":"function"},{"inputs":[{"internalType":"uint256","name":"candidateId","type":"uint256"}],"name":"vote","outputs":[],"stateMutability":"nonpayable","type":"function"}],"evm":{"bytecode":{"linkReferences":{},"object":"608060405260016002553480156013575f5ffd5b5061020e806100215f395ff3fe608060405234801561000f575f5ffd5b506004361061003f575f3560e01c80630121b93f14610043578063b9830ff11461005f578063ff98109914610069575b5f5ffd5b61005d60048036038101906100589190610185565b610099565b005b610067610102565b005b610083600480360381019061007e9190610185565b610114565b60405161009091906101bf565b60405180910390f35b60025460015f8381526020019081526020015f2054146100e15760025460015f8381526020019081526020015f20819055505f5f5f8381526020019081526020015f20819055505b60015f5f8381526020019081526020015f205f828254019250508190555050565b600160025f8282540192505081905550565b5f60025460015f8481526020019081526020015f205414610135575f610147565b5f5f8381526020019081526020015f20545b9050919050565b5f5ffd5b5f819050919050565b61016481610152565b811461016e575f5ffd5b50565b5f8135905061017f8161015b565b92915050565b5f6020828403121561019a5761019961014e565b5b5f6101a784828501610171565b91505092915050565b6101b981610152565b82525050565b5f6020820190506101d25f8301846101b0565b9291505056fea2646970667358221220974731ee90c42be7b53e2017db994bd5646fcbc067d3d00428ce3828637e233e64736f6c634300081c0033","opcodes":"PUSH1 0x80 PUSH1 0x40 MSTORE PUSH1 0x1 PUSH1 0x2 SSTORE CALLVALUE DUP1 ISZERO PUSH1 0x13 JUMPI PUSH0 PUSH0 REVERT JUMPDEST POP PUSH2 0x20E DUP1 PUSH2 0x21 PUSH0 CODECOPY PUSH0 RETURN INVALID PUSH1 0x80 PUSH1 0x40 MSTORE CALLVALUE DUP1 ISZERO PUSH2 0xF JUMPI PUSH0 PUSH0 REVERT JUMPDEST POP PUSH1 0x4 CALLDATASIZE LT PUSH2 0x3F JUMPI PUSH0 CALLDATALOAD PUSH1 0xE0 SHR DUP1 PUSH4 0x121B93F EQ PUSH2 0x43 JUMPI DUP1 PUSH4 0xB9830FF1 EQ PUSH2 0x5F JUMPI DUP1 PUSH4 0xFF981099 EQ PUSH2 0x69 JUMPI JUMPDEST PUSH0 PUSH0 REVERT JUMPDEST PUSH2 0x5D PUSH1 0x4 DUP1 CALLDATASIZE SUB DUP2 ADD SWAP1 PUSH2 0x58 SWAP2 SWAP1 PUSH2 0x185 JUMP JUMPDEST PUSH2 0x99 JUMP JUMPDEST STOP JUMPDEST PUSH2 0x67 PUSH2 0x102 JUMP JUMPDEST STOP JUMPDEST PUSH2 0x83 PUSH1 0x4 DUP1 CALLDATASIZE SUB DUP2 ADD SWAP1 PUSH2 0x7E SWAP2 SWAP1 PUSH2 0x185 JUMP JUMPDEST PUSH2 0x114 JUMP JUMPDEST PUSH1 0x40 MLOAD PUSH2 0x90 SWAP2 SWAP1 PUSH2 0x1BF JUMP JUMPDEST PUSH1 0x40 MLOAD DUP1 SWAP2 SUB SWAP1 RETURN JUMPDEST PUSH1 0x2 SLOAD PUSH1 0x1 PUSH0 DUP4 DUP2 MSTORE PUSH1 0x20 ADD SWAP1 DUP2 MSTORE PUSH1 0x20 ADD PUSH0 KECCAK256 SLOAD EQ PUSH2 0xE1 JUMPI PUSH1 0x2 SLOAD PUSH1 0x1 PUSH0 DUP4 DUP2 MSTORE PUSH1 0x20 ADD SWAP1 DUP2 MSTORE PUSH1 0x20 ADD PUSH0 KECCAK256 DUP2 SWAP1 SSTORE POP PUSH0 PUSH0 PUSH0 DUP4 DUP2 MSTORE PUSH1 0x20 ADD SWAP1 DUP2 MSTORE PUSH1 0x20 ADD PUSH0 KECCAK256 DUP2 SWAP1 SSTORE POP JUMPDEST PUSH1 0x1 PUSH0 PUSH0 DUP4 DUP2 MSTORE PUSH1 0x20 ADD SWAP1 DUP2 MSTORE PUSH1 0x20 ADD PUSH0 KECCAK256 PUSH0 DUP3 DUP3 SLOAD ADD SWAP3 POP POP DUP2 SWAP1 SSTORE POP POP JUMP JUMPDEST PUSH1 0x1 PUSH1 0x2 PUSH0 DUP3 DUP3 SLOAD ADD SWAP3 POP POP DUP2 SWAP1 SSTORE POP JUMP JUMPDEST PUSH0 PUSH1 0x2 SLOAD PUSH1 0x1 PUSH0 DUP5 DUP2 MSTORE PUSH1 0x20 ADD SWAP1 DUP2 MSTORE PUSH1 0x20 ADD PUSH0 KECCAK256 SLOAD EQ PUSH2 0x135 JUMPI PUSH0 PUSH2 0x147 JUMP JUMPDEST PUSH0 PUSH0 DUP4 DUP2 MSTORE PUSH1 0x20 ADD SWAP1 DUP2 MSTORE PUSH1 0x20 ADD PUSH0 KECCAK256 SLOAD JUMPDEST SWAP1 POP SWAP2 SWAP1 POP JUMP JUMPDEST PUSH0 PUSH0 REVERT JUMPDEST PUSH0 DUP2 SWAP1 POP SWAP2 SWAP1 POP JUMP JUMPDEST PUSH2 0x164 DUP2 PUSH2 0x152 JUMP JUMPDEST DUP2 EQ PUSH2 0x16E JUMPI PUSH0 PUSH0 REVERT JUMPDEST POP JUMP JUMPDEST PUSH0 DUP2 CALLDATALOAD SWAP1 POP PUSH2 0x17F DUP2 PUSH2 0x15B JUMP JUMPDEST SWAP3 SWAP2 POP POP JUMP JUMPDEST PUSH0 PUSH1 0x20 DUP3 DUP5 SUB SLT ISZERO PUSH2 0x19A JUMPI PUSH2 0x199 PUSH2 0x14E JUMP JUMPDEST JUMPDEST PUSH0 PUSH2 0x1A7 DUP5 DUP3 DUP6 ADD PUSH2 0x171 JUMP JUMPDEST SWAP2 POP POP SWAP3 SWAP2 POP POP JUMP JUMPDEST PUSH2 0x1B9 DUP2 PUSH2 0x152 JUMP JUMPDEST DUP3 MSTORE POP POP JUMP JUMPDEST PUSH0 PUSH1 0x20 DUP3 ADD SWAP1 POP PUSH2 0x1D2 PUSH0 DUP4 ADD DUP5 PUSH2 0x1B0 JUMP JUMPDEST SWAP3 SWAP2 POP POP JUMP INVALID LOG2 PUSH5 0x6970667358 0x22 SLT KECCAK256 SWAP8 SELFBALANCE BALANCE 0xEE SWAP1 0xC4 0x2B 0xE7 0xB5 RETURNDATACOPY KECCAK256 OR 0xDB SWAP10 0x4B 0xD5 PUSH5 0x6FCBC067D3 0xD0 DIV 0x28 0xCE CODESIZE 0x28 PUSH4 0x7E233E64 PUSH20 0x6F6C634300081C00330000000000000000000000 "},"methodIdentifiers":{"getVotes(uint256)":"ff981099","resetVotes()":"b9830ff1","vote(uint256)":"0121b93f"}}}}}