{"project/contracts/Lock.sol":{"Lock":{"abi":[{"inputs":[{"internalType":"uint256","name":"_unlockTime","type":"uint256"}],"stateMutability":"payable","type":"constructor"},{"anonymous":false,"inputs":[{"indexed":false,"internalType":"uint256","name":"amount","type":"uint256"},{"indexed":false,"internalType":"uint256","name":"when","type":"uint256"}],"name":"Withdrawal","type":"event"},{"inputs":[],"name":"owner","outputs":[{"internalType":"address payable","name":"","type":"address"}],"stateMutability":"view","type":"function"},{"inputs":[],"name":"unlockTime","outputs":[{"internalType":"uint256","name":"","type":"uint256"}],"stateMutability":"view","type":"function"},{"inputs":[],"name":"withdraw","outputs":[],"stateMutability":"nonpayable","type":"function"}],"evm":{"bytecode":{"linkReferences":{},"object":"60806040526040516105ac3803806105ac833981810160405281019061002591906100ea565b804210610067576040517f08c379a000000000000000000000000000000000000000000000000000000000815260040161005e90610195565b60405180910390fd5b805f819055503360015f6101000a81548173ffffffffffffffffffffffffffffffffffffffff021916908373ffffffffffffffffffffffffffffffffffffffff160217905550506101b3565b5f5ffd5b5f819050919050565b6100c9816100b7565b81146100d3575f5ffd5b50565b5f815190506100e4816100c0565b92915050565b5f602082840312156100ff576100fe6100b3565b5b5f61010c848285016100d6565b91505092915050565b5f82825260208201905092915050565b7f556e6c6f636b2074696d652073686f756c6420626520696e20746865206675745f8201527f7572650000000000000000000000000000000000000000000000000000000000602082015250565b5f61017f602383610115565b915061018a82610125565b604082019050919050565b5f6020820190508181035f8301526101ac81610173565b9050919050565b6103ec806101c05f395ff3fe608060405234801561000f575f5ffd5b506004361061003f575f3560e01c8063251c1aa3146100435780633ccfd60b146100615780638da5cb5b1461006b575b5f5ffd5b61004b610089565b604051610058919061023e565b60405180910390f35b61006961008e565b005b610073610201565b6040516100809190610296565b60405180910390f35b5f5481565b5f544210156100d2576040517f08c379a00000000000000000000000000000000000000000000000000000000081526004016100c990610309565b60405180910390fd5b60015f9054906101000a900473ffffffffffffffffffffffffffffffffffffffff1673ffffffffffffffffffffffffffffffffffffffff163373ffffffffffffffffffffffffffffffffffffffff1614610161576040517f08c379a000000000000000000000000000000000000000000000000000000000815260040161015890610371565b60405180910390fd5b7fbf2ed60bd5b5965d685680c01195c9514e4382e28e3a5a2d2d5244bf59411b93474260405161019292919061038f565b60405180910390a160015f9054906101000a900473ffffffffffffffffffffffffffffffffffffffff1673ffffffffffffffffffffffffffffffffffffffff166108fc4790811502906040515f60405180830381858888f193505050501580156101fe573d5f5f3e3d5ffd5b50565b60015f9054906101000a900473ffffffffffffffffffffffffffffffffffffffff1681565b5f819050919050565b61023881610226565b82525050565b5f6020820190506102515f83018461022f565b92915050565b5f73ffffffffffffffffffffffffffffffffffffffff82169050919050565b5f61028082610257565b9050919050565b61029081610276565b82525050565b5f6020820190506102a95f830184610287565b92915050565b5f82825260208201905092915050565b7f4e6f742079657420756e6c6f636b6564000000000000000000000000000000005f82015250565b5f6102f36010836102af565b91506102fe826102bf565b602082019050919050565b5f6020820190508181035f830152610320816102e7565b9050919050565b7f4e6f74206f776e657200000000000000000000000000000000000000000000005f82015250565b5f61035b6009836102af565b915061036682610327565b602082019050919050565b5f6020820190508181035f8301526103888161034f565b9050919050565b5f6040820190506103a25f83018561022f565b6103af602083018461022f565b939250505056fea2646970667358221220811f4642c70e33313251a55749c181fedab24423f77b184c221fdd38c1b142c064736f6c634300081c0033","opcodes":"PUSH1 0x80 PUSH1 0x40 MSTORE PUSH1 0x40 MLOAD PUSH2 0x5AC CODESIZE SUB DUP1 PUSH2 0x5AC DUP4 CODECOPY DUP2 DUP2 ADD PUSH1 0x40 MSTORE DUP2 ADD SWAP1 PUSH2 0x25 SWAP2 SWAP1 PUSH2 0xEA JUMP JUMPDEST DUP1 TIMESTAMP LT PUSH2 0x67 JUMPI PUSH1 0x40 MLOAD PUSH32 0x8C379A000000000000000000000000000000000000000000000000000000000 DUP2 MSTORE PUSH1 0x4 ADD PUSH2 0x5E SWAP1 PUSH2 0x195 JUMP JUMPDEST PUSH1 0x40 MLOAD DUP1 SWAP2 SUB SWAP1 REVERT JUMPDEST DUP1 PUSH0 DUP2 SWAP1 SSTORE POP CALLER PUSH1 0x1 PUSH0 PUSH2 0x100 EXP DUP2 SLOAD DUP2 PUSH20 0xFFFFFFFFFFFFFFFFFFFFFFFFFFFFFFFFFFFFFFFF MUL NOT AND SWAP1 DUP4 PUSH20 0xFFFFFFFFFFFFFFFFFFFFFFFFFFFFFFFFFFFFFFFF AND MUL OR SWAP1 SSTORE POP POP PUSH2 0x1B3 JUMP JUMPDEST PUSH0 PUSH0 REVERT JUMPDEST PUSH0 DUP2 SWAP1 POP SWAP2 SWAP1 POP JUMP JUMPDEST PUSH2 0xC9 DUP2 PUSH2 0xB7 JUMP JUMPDEST DUP2 EQ PUSH2 0xD3 JUMPI PUSH0 PUSH0 REVERT JUMPDEST POP JUMP JUMPDEST PUSH0 DUP2 MLOAD SWAP1 POP PUSH2 0xE4 DUP2 PUSH2 0xC0 JUMP JUMPDEST SWAP3 SWAP2 POP POP JUMP JUMPDEST PUSH0 PUSH1 0x20 DUP3 DUP5 SUB SLT ISZERO PUSH2 0xFF JUMPI PUSH2 0xFE PUSH2 0xB3 JUMP JUMPDEST JUMPDEST PUSH0 PUSH2 0x10C DUP5 DUP3 DUP6 ADD PUSH2 0xD6 JUMP JUMPDEST SWAP2 POP POP SWAP3 SWAP2 POP POP JUMP JUMPDEST PUSH0 DUP3 DUP3 MSTORE PUSH1 0x20 DUP3 ADD SWAP1 POP SWAP3 SWAP2 POP POP JUMP JUMPDEST PUSH32 0x556E6C6F636B2074696D652073686F756C6420626520696E2074686520667574 PUSH0 DUP3 ADD MSTORE PUSH32 0x7572650000000000000000000000000000000000000000000000000000000000 PUSH1 0x20 DUP3 ADD MSTORE POP JUMP JUMPDEST PUSH0 PUSH2 0x17F PUSH1 0x23 DUP4 PUSH2 0x115 JUMP JUMPDEST SWAP2 POP PUSH2 0x18A DUP3 PUSH2 0x125 JUMP JUMPDEST PUSH1 0x40 DUP3 ADD SWAP1 POP SWAP2 SWAP1 POP JUMP JUMPDEST PUSH0 PUSH1 0x20 DUP3 ADD SWAP1 POP DUP2 DUP2 SUB PUSH0 DUP4 ADD MSTORE PUSH2 0x1AC DUP2 PUSH2 0x173 JUMP JUMPDEST SWAP1 POP SWAP2 SWAP1 POP JUMP JUMPDEST PUSH2 0x3EC DUP1 PUSH2 0x1C0 PUSH0 CODECOPY PUSH0 RETURN INVALID PUSH1 0x80 PUSH1 0x40 MSTORE CALLVALUE DUP1 ISZERO PUSH2 0xF JUMPI PUSH0 PUSH0 REVERT JUMPDEST POP PUSH1 0x4 CALLDATASIZE LT PUSH2 0x3F JUMPI PUSH0 CALLDATALOAD PUSH1 0xE0 SHR DUP1 PUSH4 0x251C1AA3 EQ PUSH2 0x43 JUMPI DUP1 PUSH4 0x3CCFD60B EQ PUSH2 0x61 JUMPI DUP1 PUSH4 0x8DA5CB5B EQ PUSH2 0x6B JUMPI JUMPDEST PUSH0 PUSH0 REVERT JUMPDEST PUSH2 0x4B PUSH2 0x89 JUMP JUMPDEST PUSH1 0x40 MLOAD PUSH2 0x58 SWAP2 SWAP1 PUSH2 0x23E JUMP JUMPDEST PUSH1 0x40 MLOAD DUP1 SWAP2 SUB SWAP1 RETURN JUMPDEST PUSH2 0x69 PUSH2 0x8E JUMP JUMPDEST STOP JUMPDEST PUSH2 0x73 PUSH2 0x201 JUMP JUMPDEST PUSH1 0x40 MLOAD PUSH2 0x80 SWAP2 SWAP1 PUSH2 0x296 JUMP JUMPDEST PUSH1 0x40 MLOAD DUP1 SWAP2 SUB SWAP1 RETURN JUMPDEST PUSH0 SLOAD DUP2 JUMP JUMPDEST PUSH0 SLOAD TIMESTAMP LT ISZERO PUSH2 0xD2 JUMPI PUSH1 0x40 MLOAD PUSH32 0x8C379A000000000000000000000000000000000000000000000000000000000 DUP2 MSTORE PUSH1 0x4 ADD PUSH2 0xC9 SWAP1 PUSH2 0x309 JUMP JUMPDEST PUSH1 0x40 MLOAD DUP1 SWAP2 SUB SWAP1 REVERT JUMPDEST PUSH1 0x1 PUSH0 SWAP1 SLOAD SWAP1 PUSH2 0x100 EXP SWAP1 DIV PUSH20 0xFFFFFFFFFFFFFFFFFFFFFFFFFFFFFFFFFFFFFFFF AND PUSH20 0xFFFFFFFFFFFFFFFFFFFFFFFFFFFFFFFFFFFFFFFF AND CALLER PUSH20 0xFFFFFFFFFFFFFFFFFFFFFFFFFFFFFFFFFFFFFFFF AND EQ PUSH2 0x161 JUMPI PUSH1 0x40 MLOAD PUSH32 0x8C379A000000000000000000000000000000000000000000000000000000000 DUP2 MSTORE PUSH1 0x4 ADD PUSH2 0x158 SWAP1 PUSH2 0x371 JUMP JUMPDEST PUSH1 0x40 MLOAD DUP1 SWAP2 SUB SWAP1 REVERT JUMPDEST PUSH32 0xBF2ED60BD5B5965D685680C01195C9514E4382E28E3A5A2D2D5244BF59411B93 SELFBALANCE TIMESTAMP PUSH1 0x40 MLOAD PUSH2 0x192 SWAP3 SWAP2 SWAP1 PUSH2 0x38F JUMP JUMPDEST PUSH1 0x40 MLOAD DUP1 SWAP2 SUB SWAP1 LOG1 PUSH1 0x1 PUSH0 SWAP1 SLOAD SWAP1 PUSH2 0x100 EXP SWAP1 DIV PUSH20 0xFFFFFFFFFFFFFFFFFFFFFFFFFFFFFFFFFFFFFFFF AND PUSH20 0xFFFFFFFFFFFFFFFFFFFFFFFFFFFFFFFFFFFFFFFF AND PUSH2 0x8FC SELFBALANCE SWAP1 DUP2 ISZERO MUL SWAP1 PUSH1 0x40 MLOAD PUSH0 PUSH1 0x40 MLOAD DUP1 DUP4 SUB DUP2 DUP6 DUP9 DUP9 CALL SWAP4 POP POP POP POP ISZERO DUP1 ISZERO PUSH2 0x1FE JUMPI RETURNDATASIZE PUSH0 PUSH0 RETURNDATACOPY RETURNDATASIZE PUSH0 REVERT JUMPDEST POP JUMP JUMPDEST PUSH1 0x1 PUSH0 SWAP1 SLOAD SWAP1 PUSH2 0x100 EXP SWAP1 DIV PUSH20 0xFFFFFFFFFFFFFFFFFFFFFFFFFFFFFFFFFFFFFFFF AND DUP2 JUMP JUMPDEST PUSH0 DUP2 SWAP1 POP SWAP2 SWAP1 POP JUMP JUMPDEST PUSH2 0x238 DUP2 PUSH2 0x226 JUMP JUMPDEST DUP3 MSTORE POP POP JUMP JUMPDEST PUSH0 PUSH1 0x20 DUP3 ADD SWAP1 POP PUSH2 0x251 PUSH0 DUP4 ADD DUP5 PUSH2 0x22F JUMP JUMPDEST SWAP3 SWAP2 POP POP JUMP JUMPDEST PUSH0 PUSH20 0xFFFFFFFFFFFFFFFFFFFFFFFFFFFFFFFFFFFFFFFF DUP3 AND SWAP1 POP SWAP2 SWAP1 POP JUMP JUMPDEST PUSH0 PUSH2 0x280 DUP3 PUSH2 0x257 JUMP JUMPDEST SWAP1 POP SWAP2 SWAP1 POP JUMP JUMPDEST PUSH2 0x290 DUP2 PUSH2 0x276 JUMP JUMPDEST DUP3 MSTORE POP POP JUMP JUMPDEST PUSH0 PUSH1 0x20 DUP3 ADD SWAP1 POP PUSH2 0x2A9 PUSH0 DUP4 ADD DUP5 PUSH2 0x287 JUMP JUMPDEST SWAP3 SWAP2 POP POP JUMP JUMPDEST PUSH0 DUP3 DUP3 MSTORE PUSH1 0x20 DUP3 ADD SWAP1 POP SWAP3 SWAP2 POP POP JUMP JUMPDEST PUSH32 0x4E6F742079657420756E6C6F636B656400000000000000000000000000000000 PUSH0 DUP3 ADD MSTORE POP JUMP JUMPDEST PUSH0 PUSH2 0x2F3 PUSH1 0x10 DUP4 PUSH2 0x2AF JUMP JUMPDEST SWAP2 POP PUSH2 0x2FE DUP3 PUSH2 0x2BF JUMP JUMPDEST PUSH1 0x20 DUP3 ADD SWAP1 POP SWAP2 SWAP1 POP JUMP JUMPDEST PUSH0 PUSH1 0x20 DUP3 ADD SWAP1 POP DUP2 DUP2 SUB PUSH0 DUP4 ADD MSTORE PUSH2 0x320 DUP2 PUSH2 0x2E7 JUMP JUMPDEST SWAP1 POP SWAP2 SWAP1 POP JUMP JUMPDEST PUSH32 0x4E6F74206F776E65720000000000000000000000000000000000000000000000 PUSH0 DUP3 ADD MSTORE POP JUMP JUMPDEST PUSH0 PUSH2 0x35B PUSH1 0x9 DUP4 PUSH2 0x2AF JUMP JUMPDEST SWAP2 POP PUSH2 0x366 DUP3 PUSH2 0x327 JUMP JUMPDEST PUSH1 0x20 DUP3 ADD SWAP1 POP SWAP2 SWAP1 POP JUMP JUMPDEST PUSH0 PUSH1 0x20 DUP3 ADD SWAP1 POP DUP2 DUP2 SUB PUSH0 DUP4 ADD MSTORE PUSH2 0x388 DUP2 PUSH2 0x34F JUMP JUMPDEST SWAP1 POP SWAP2 SWAP1 POP JUMP JUMPDEST PUSH0 PUSH1 0x40 DUP3 ADD SWAP1 POP PUSH2 0x3A2 PUSH0 DUP4 ADD DUP6 PUSH2 0x22F JUMP JUMPDEST PUSH2 0x3AF PUSH1 0x20 DUP4 ADD DUP5 PUSH2 0x22F JUMP JUMPDEST SWAP4 SWAP3 POP POP POP JUMP INVALID LOG2 PUSH5 0x6970667358 0x22 SLT KECCAK256 DUP2 0x1F CHAINID TIMESTAMP 0xC7 0xE CALLER BALANCE ORIGIN MLOAD 0xA5 JUMPI BLOBHASH 0xC1 DUP2 INVALID 0xDA 0xB2 PREVRANDAO 0x23 0xF7 PUSH28 0x184C221FDD38C1B142C064736F6C634300081C003300000000000000 "},"methodIdentifiers":{"owner()":"8da5cb5b","unlockTime()":"251c1aa3","withdraw()":"3ccfd60b"}}}}}