{
  "_format": "hh3-artifact-1",
  "contractName": "ConvertRomanNumeralsToIntegers",
  "sourceName": "contracts/ConvertRomanNumeralsToIntegers.sol",
  "abi": [
    {
      "inputs": [
        {
          "internalType": "string",
          "name": "s",
          "type": "string"
        }
      ],
      "name": "romanToInt",
      "outputs": [
        {
          "internalType": "uint256",
          "name": "",
          "type": "uint256"
        }
      ],
      "stateMutability": "pure",
      "type": "function"
    }
  ],
  "bytecode": "0x6080604052348015600e575f5ffd5b5061094f8061001c5f395ff3fe608060405234801561000f575f5ffd5b5060043610610029575f3560e01c8063cb159dfe1461002d575b5f5ffd5b610047600480360381019061004291906106df565b61005d565b604051610054919061073e565b60405180910390f35b5f5f8290505f815190505f5f90505f5f90505b82811015610252575f61009f85838151811061008f5761008e610757565b5b602001015160f81c60f81b61025e565b90506100e06040518060400160405280600581526020017f76616c7565000000000000000000000000000000000000000000000000000000815250826104a8565b6001846100ed91906107b1565b8210156101f0575f6101278660018561010691906107e4565b8151811061011757610116610757565b5b602001015160f81c60f81b61025e565b90508082101561019c57818161013d91906107b1565b8461014891906107e4565b9350828061015590610817565b9350506101976040518060400160405280600c81526020017f7061697220726573756c743a0000000000000000000000000000000000000000815250856104a8565b6101ea565b81846101a891906107e4565b93506101e96040518060400160405280600d81526020017f656c73652020726573756c743a00000000000000000000000000000000000000815250856104a8565b5b5061023e565b80836101fc91906107e4565b925061023d6040518060400160405280600d81526020017f656c73652020726573756c743a00000000000000000000000000000000000000815250846104a8565b5b50808061024a90610817565b915050610070565b50809350505050919050565b5f7f4900000000000000000000000000000000000000000000000000000000000000827effffffffffffffffffffffffffffffffffffffffffffffffffffffffffffff1916036102b157600190506104a3565b7f5600000000000000000000000000000000000000000000000000000000000000827effffffffffffffffffffffffffffffffffffffffffffffffffffffffffffff19160361030357600590506104a3565b7f5800000000000000000000000000000000000000000000000000000000000000827effffffffffffffffffffffffffffffffffffffffffffffffffffffffffffff19160361035557600a90506104a3565b7f4c00000000000000000000000000000000000000000000000000000000000000827effffffffffffffffffffffffffffffffffffffffffffffffffffffffffffff1916036103a757603290506104a3565b7f4300000000000000000000000000000000000000000000000000000000000000827effffffffffffffffffffffffffffffffffffffffffffffffffffffffffffff1916036103f957606490506104a3565b7f4400000000000000000000000000000000000000000000000000000000000000827effffffffffffffffffffffffffffffffffffffffffffffffffffffffffffff19160361044c576101f490506104a3565b7f4d00000000000000000000000000000000000000000000000000000000000000827effffffffffffffffffffffffffffffffffffffffffffffffffffffffffffff19160361049f576103e890506104a3565b5f90505b919050565b61054082826040516024016104be9291906108be565b6040516020818303038152906040527fb60e72cc000000000000000000000000000000000000000000000000000000007bffffffffffffffffffffffffffffffffffffffffffffffffffffffff19166020820180517bffffffffffffffffffffffffffffffffffffffffffffffffffffffff8381831617835250505050610544565b5050565b61055b8161055361055e61057d565b63ffffffff16565b50565b5f6a636f6e736f6c652e6c6f6790505f5f835160208501845afa505050565b610588819050919050565b6105906108ec565b565b5f604051905090565b5f5ffd5b5f5ffd5b5f5ffd5b5f5ffd5b5f601f19601f8301169050919050565b7f4e487b71000000000000000000000000000000000000000000000000000000005f52604160045260245ffd5b6105f1826105ab565b810181811067ffffffffffffffff821117156106105761060f6105bb565b5b80604052505050565b5f610622610592565b905061062e82826105e8565b919050565b5f67ffffffffffffffff82111561064d5761064c6105bb565b5b610656826105ab565b9050602081019050919050565b828183375f83830152505050565b5f61068361067e84610633565b610619565b90508281526020810184848401111561069f5761069e6105a7565b5b6106aa848285610663565b509392505050565b5f82601f8301126106c6576106c56105a3565b5b81356106d6848260208601610671565b91505092915050565b5f602082840312156106f4576106f361059b565b5b5f82013567ffffffffffffffff8111156107115761071061059f565b5b61071d848285016106b2565b91505092915050565b5f819050919050565b61073881610726565b82525050565b5f6020820190506107515f83018461072f565b92915050565b7f4e487b71000000000000000000000000000000000000000000000000000000005f52603260045260245ffd5b7f4e487b71000000000000000000000000000000000000000000000000000000005f52601160045260245ffd5b5f6107bb82610726565b91506107c683610726565b92508282039050818111156107de576107dd610784565b5b92915050565b5f6107ee82610726565b91506107f983610726565b925082820190508082111561081157610810610784565b5b92915050565b5f61082182610726565b91507fffffffffffffffffffffffffffffffffffffffffffffffffffffffffffffffff820361085357610852610784565b5b600182019050919050565b5f81519050919050565b5f82825260208201905092915050565b8281835e5f83830152505050565b5f6108908261085e565b61089a8185610868565b93506108aa818560208601610878565b6108b3816105ab565b840191505092915050565b5f6040820190508181035f8301526108d68185610886565b90506108e5602083018461072f565b9392505050565b7f4e487b71000000000000000000000000000000000000000000000000000000005f52605160045260245ffdfea2646970667358221220570d925d5bbbec5cfaf061db2bfc54e1f7e6be3cb5d44b39cdc3819274ffd46764736f6c634300081c0033",
  "linkReferences": {},
  "deployedLinkReferences": {},
  "immutableReferences": {},
  "inputSourceName": "project/contracts/ConvertRomanNumeralsToIntegers.sol",
  "buildInfoId": "solc-0_8_28-ee11b2675d499269d21f3a31979ac43bd72d959c"
}