{
  "_format": "hh3-artifact-1",
  "contractName": "IntegerToRomanNumeral",
  "sourceName": "contracts/IntegerToRomanNumeral.sol",
  "abi": [
    {
      "inputs": [
        {
          "internalType": "uint256",
          "name": "num",
          "type": "uint256"
        }
      ],
      "name": "intToRoman",
      "outputs": [
        {
          "internalType": "string",
          "name": "",
          "type": "string"
        }
      ],
      "stateMutability": "view",
      "type": "function"
    }
  ],
  "bytecode": "0x6080604052604051806101a001604052806103e861ffff16815260200161038461ffff1681526020016101f461ffff16815260200161019061ffff168152602001606461ffff168152602001605a61ffff168152602001603261ffff168152602001602861ffff168152602001600a61ffff168152602001600961ffff168152602001600561ffff168152602001600461ffff168152602001600161ffff168152505f90600d6100b09291906103dc565b50604051806101a001604052806040518060400160405280600181526020017f4d0000000000000000000000000000000000000000000000000000000000000081525081526020016040518060400160405280600281526020017f434d00000000000000000000000000000000000000000000000000000000000081525081526020016040518060400160405280600181526020017f440000000000000000000000000000000000000000000000000000000000000081525081526020016040518060400160405280600281526020017f434400000000000000000000000000000000000000000000000000000000000081525081526020016040518060400160405280600181526020017f430000000000000000000000000000000000000000000000000000000000000081525081526020016040518060400160405280600281526020017f584300000000000000000000000000000000000000000000000000000000000081525081526020016040518060400160405280600181526020017f4c0000000000000000000000000000000000000000000000000000000000000081525081526020016040518060400160405280600281526020017f584c00000000000000000000000000000000000000000000000000000000000081525081526020016040518060400160405280600181526020017f580000000000000000000000000000000000000000000000000000000000000081525081526020016040518060400160405280600281526020017f495800000000000000000000000000000000000000000000000000000000000081525081526020016040518060400160405280600181526020017f560000000000000000000000000000000000000000000000000000000000000081525081526020016040518060400160405280600281526020017f495600000000000000000000000000000000000000000000000000000000000081525081526020016040518060400160405280600181526020017f4900000000000000000000000000000000000000000000000000000000000000815250815250600190600d6103ca92919061042d565b503480156103d6575f5ffd5b5061080b565b828054828255905f5260205f2090810192821561041c579160200282015b8281111561041b578251829061ffff169055916020019190600101906103fa565b5b5090506104299190610484565b5090565b828054828255905f5260205f20908101928215610473579160200282015b82811115610472578251829081610462919061073c565b509160200191906001019061044b565b5b509050610480919061049f565b5090565b5b8082111561049b575f815f905550600101610485565b5090565b5b808211156104be575f81816104b591906104c2565b506001016104a0565b5090565b5080546104ce90610563565b5f825580601f106104df57506104fc565b601f0160209004905f5260205f20908101906104fb9190610484565b5b50565b5f81519050919050565b7f4e487b71000000000000000000000000000000000000000000000000000000005f52604160045260245ffd5b7f4e487b71000000000000000000000000000000000000000000000000000000005f52602260045260245ffd5b5f600282049050600182168061057a57607f821691505b60208210810361058d5761058c610536565b5b50919050565b5f819050815f5260205f209050919050565b5f6020601f8301049050919050565b5f82821b905092915050565b5f600883026105ef7fffffffffffffffffffffffffffffffffffffffffffffffffffffffffffffffff826105b4565b6105f986836105b4565b95508019841693508086168417925050509392505050565b5f819050919050565b5f819050919050565b5f61063d61063861063384610611565b61061a565b610611565b9050919050565b5f819050919050565b61065683610623565b61066a61066282610644565b8484546105c0565b825550505050565b5f5f905090565b610681610672565b61068c81848461064d565b505050565b5b818110156106af576106a45f82610679565b600181019050610692565b5050565b601f8211156106f4576106c581610593565b6106ce846105a5565b810160208510156106dd578190505b6106f16106e9856105a5565b830182610691565b50505b505050565b5f82821c905092915050565b5f6107145f19846008026106f9565b1980831691505092915050565b5f61072c8383610705565b9150826002028217905092915050565b610745826104ff565b67ffffffffffffffff81111561075e5761075d610509565b5b6107688254610563565b6107738282856106b3565b5f60209050601f8311600181146107a4575f8415610792578287015190505b61079c8582610721565b865550610803565b601f1984166107b286610593565b5f5b828110156107d9578489015182556001820191506020850194506020810190506107b4565b868310156107f657848901516107f2601f891682610705565b8355505b6001600288020188555050505b505050505050565b610437806108185f395ff3fe608060405234801561000f575f5ffd5b5060043610610029575f3560e01c80630cbc513a1461002d575b5f5ffd5b6100476004803603810190610042919061016d565b61005d565b6040516100549190610208565b60405180910390f35b60605f8290505f60405180602001604052805f81525090505f5f90505b5f8054905081101561012b575b5f818154811061009a57610099610228565b5b905f5260205f20015483106101165781600182815481106100be576100bd610228565b5b905f5260205f20016040516020016100d792919061037e565b60405160208183030381529060405291505f81815481106100fb576100fa610228565b5b905f5260205f2001548361010f91906103ce565b9250610087565b5f83031561012b57808060010191505061007a565b508092505050919050565b5f5ffd5b5f819050919050565b61014c8161013a565b8114610156575f5ffd5b50565b5f8135905061016781610143565b92915050565b5f6020828403121561018257610181610136565b5b5f61018f84828501610159565b91505092915050565b5f81519050919050565b5f82825260208201905092915050565b8281835e5f83830152505050565b5f601f19601f8301169050919050565b5f6101da82610198565b6101e481856101a2565b93506101f48185602086016101b2565b6101fd816101c0565b840191505092915050565b5f6020820190508181035f83015261022081846101d0565b905092915050565b7f4e487b71000000000000000000000000000000000000000000000000000000005f52603260045260245ffd5b5f81905092915050565b5f61026982610198565b6102738185610255565b93506102838185602086016101b2565b80840191505092915050565b7f4e487b71000000000000000000000000000000000000000000000000000000005f52602260045260245ffd5b5f60028204905060018216806102d357607f821691505b6020821081036102e6576102e561028f565b5b50919050565b5f819050815f5260205f209050919050565b5f815461030a816102bc565b6103148186610255565b9450600182165f811461032e576001811461034357610375565b60ff1983168652811515820286019350610375565b61034c856102ec565b5f5b8381101561036d5781548189015260018201915060208101905061034e565b838801955050505b50505092915050565b5f610389828561025f565b915061039582846102fe565b91508190509392505050565b7f4e487b71000000000000000000000000000000000000000000000000000000005f52601160045260245ffd5b5f6103d88261013a565b91506103e38361013a565b92508282039050818111156103fb576103fa6103a1565b5b9291505056fea264697066735822122004a1a9a6efd5a24889f8c7acd6ee90eac32e63de77d25516017ed9e9cebfea8c64736f6c634300081c0033",
  "linkReferences": {},
  "deployedLinkReferences": {},
  "immutableReferences": {},
  "inputSourceName": "project/contracts/IntegerToRomanNumeral.sol",
  "buildInfoId": "solc-0_8_28-15d74d4b831c4d05d8fb7215f9cc4eb8fff52102"
}