{
  "_format": "hh3-artifact-1",
  "contractName": "MergeSortedArray",
  "sourceName": "contracts/MergeSortedArray.sol",
  "abi": [
    {
      "inputs": [
        {
          "internalType": "int256[]",
          "name": "nums1",
          "type": "int256[]"
        },
        {
          "internalType": "int256[]",
          "name": "nums2",
          "type": "int256[]"
        }
      ],
      "name": "merge",
      "outputs": [
        {
          "internalType": "int256[]",
          "name": "",
          "type": "int256[]"
        }
      ],
      "stateMutability": "pure",
      "type": "function"
    }
  ],
  "bytecode": "0x6080604052348015600e575f5ffd5b5061068f8061001c5f395ff3fe608060405234801561000f575f5ffd5b5060043610610029575f3560e01c80638e13aff11461002d575b5f5ffd5b6100476004803603810190610042919061042f565b61005d565b604051610054919061055c565b60405180910390f35b60605f5f90505f5f90505f855190505f855190505f818361007e91906105b2565b67ffffffffffffffff811115610097576100966102c0565b5b6040519080825280602002602001820160405280156100c55781602001602082028036833780820191505090505b5090505f5f90505b83861080156100db57508285105b156101c4578785815181106100f3576100f26105e5565b5b602002602001015189878151811061010e5761010d6105e5565b5b6020026020010151136101685788868151811061012e5761012d6105e5565b5b6020026020010151828281518110610149576101486105e5565b5b602002602001018181525050858061016090610612565b9650506101b1565b87858151811061017b5761017a6105e5565b5b6020026020010151828281518110610196576101956105e5565b5b60200260200101818152505084806101ad90610612565b9550505b80806101bc90610612565b9150506100cd565b5b83861015610228578886815181106101e0576101df6105e5565b5b60200260200101518282815181106101fb576101fa6105e5565b5b602002602001018181525050858061021290610612565b965050808061022090610612565b9150506101c5565b5b8285101561028c57878581518110610244576102436105e5565b5b602002602001015182828151811061025f5761025e6105e5565b5b602002602001018181525050848061027690610612565b955050808061028490610612565b915050610229565b81965050505050505092915050565b5f604051905090565b5f5ffd5b5f5ffd5b5f5ffd5b5f601f19601f8301169050919050565b7f4e487b71000000000000000000000000000000000000000000000000000000005f52604160045260245ffd5b6102f6826102b0565b810181811067ffffffffffffffff82111715610315576103146102c0565b5b80604052505050565b5f61032761029b565b905061033382826102ed565b919050565b5f67ffffffffffffffff821115610352576103516102c0565b5b602082029050602081019050919050565b5f5ffd5b5f819050919050565b61037981610367565b8114610383575f5ffd5b50565b5f8135905061039481610370565b92915050565b5f6103ac6103a784610338565b61031e565b905080838252602082019050602084028301858111156103cf576103ce610363565b5b835b818110156103f857806103e48882610386565b8452602084019350506020810190506103d1565b5050509392505050565b5f82601f830112610416576104156102ac565b5b813561042684826020860161039a565b91505092915050565b5f5f60408385031215610445576104446102a4565b5b5f83013567ffffffffffffffff811115610462576104616102a8565b5b61046e85828601610402565b925050602083013567ffffffffffffffff81111561048f5761048e6102a8565b5b61049b85828601610402565b9150509250929050565b5f81519050919050565b5f82825260208201905092915050565b5f819050602082019050919050565b6104d781610367565b82525050565b5f6104e883836104ce565b60208301905092915050565b5f602082019050919050565b5f61050a826104a5565b61051481856104af565b935061051f836104bf565b805f5b8381101561054f57815161053688826104dd565b9750610541836104f4565b925050600181019050610522565b5085935050505092915050565b5f6020820190508181035f8301526105748184610500565b905092915050565b5f819050919050565b7f4e487b71000000000000000000000000000000000000000000000000000000005f52601160045260245ffd5b5f6105bc8261057c565b91506105c78361057c565b92508282019050808211156105df576105de610585565b5b92915050565b7f4e487b71000000000000000000000000000000000000000000000000000000005f52603260045260245ffd5b5f61061c8261057c565b91507fffffffffffffffffffffffffffffffffffffffffffffffffffffffffffffffff820361064e5761064d610585565b5b60018201905091905056fea2646970667358221220ab66d47950a6673f0101a45a8e0da84d46de6e52b30530710fa83cebef5c855564736f6c634300081c0033",
  "linkReferences": {},
  "deployedLinkReferences": {},
  "immutableReferences": {},
  "inputSourceName": "project/contracts/MergeSortedArray.sol",
  "buildInfoId": "solc-0_8_28-956a7309cf675dba58f122565c51576d2371e8f2"
}